{
  "contractName": "dBank",
  "abi": [
    {
      "inputs": [
        {
          "internalType": "contract Token",
          "name": "token",
          "type": "address"
        }
      ],
      "stateMutability": "nonpayable",
      "type": "constructor"
    },
    {
      "anonymous": false,
      "inputs": [
        {
          "indexed": true,
          "internalType": "address",
          "name": "user",
          "type": "address"
        },
        {
          "indexed": false,
          "internalType": "uint256",
          "name": "etherAmount",
          "type": "uint256"
        },
        {
          "indexed": false,
          "internalType": "uint256",
          "name": "timeStart",
          "type": "uint256"
        }
      ],
      "name": "Deposit",
      "type": "event"
    },
    {
      "anonymous": false,
      "inputs": [
        {
          "indexed": true,
          "internalType": "address",
          "name": "user",
          "type": "address"
        },
        {
          "indexed": false,
          "internalType": "uint256",
          "name": "etherAmount",
          "type": "uint256"
        },
        {
          "indexed": false,
          "internalType": "uint256",
          "name": "timeStart",
          "type": "uint256"
        },
        {
          "indexed": false,
          "internalType": "uint256",
          "name": "interest",
          "type": "uint256"
        }
      ],
      "name": "Withdraw",
      "type": "event"
    },
    {
      "inputs": [
        {
          "internalType": "address",
          "name": "",
          "type": "address"
        }
      ],
      "name": "depositStart",
      "outputs": [
        {
          "internalType": "uint256",
          "name": "",
          "type": "uint256"
        }
      ],
      "stateMutability": "view",
      "type": "function"
    },
    {
      "inputs": [
        {
          "internalType": "address",
          "name": "",
          "type": "address"
        }
      ],
      "name": "etherBalanceOf",
      "outputs": [
        {
          "internalType": "uint256",
          "name": "",
          "type": "uint256"
        }
      ],
      "stateMutability": "view",
      "type": "function"
    },
    {
      "inputs": [
        {
          "internalType": "address",
          "name": "",
          "type": "address"
        }
      ],
      "name": "isDeposited",
      "outputs": [
        {
          "internalType": "bool",
          "name": "",
          "type": "bool"
        }
      ],
      "stateMutability": "view",
      "type": "function"
    },
    {
      "inputs": [],
      "name": "deposit",
      "outputs": [],
      "stateMutability": "payable",
      "type": "function"
    },
    {
      "inputs": [],
      "name": "withdraw",
      "outputs": [],
      "stateMutability": "nonpayable",
      "type": "function"
    },
    {
      "inputs": [],
      "name": "borrow",
      "outputs": [],
      "stateMutability": "payable",
      "type": "function"
    },
    {
      "inputs": [],
      "name": "payOff",
      "outputs": [],
      "stateMutability": "nonpayable",
      "type": "function"
    }
  ],
  "bytecode": "0x608060405234801561001057600080fd5b506040516109663803806109668339818101604052602081101561003357600080fd5b8101908080519060200190929190505050806000806101000a81548173ffffffffffffffffffffffffffffffffffffffff021916908373ffffffffffffffffffffffffffffffffffffffff160217905550506108d2806100946000396000f3fe6080604052600436106100705760003560e01c8063737320241161004e5780637373202414610108578063d0e30db01461016f578063e68d356914610179578063ff87930a1461018357610070565b8063179fc99f146100755780633ccfd60b146100da5780633fac68d5146100f1575b600080fd5b34801561008157600080fd5b506100c46004803603602081101561009857600080fd5b81019080803573ffffffffffffffffffffffffffffffffffffffff1690602001909291905050506101e8565b6040518082815260200191505060405180910390f35b3480156100e657600080fd5b506100ef610200565b005b3480156100fd57600080fd5b5061010661061f565b005b34801561011457600080fd5b506101576004803603602081101561012b57600080fd5b81019080803573ffffffffffffffffffffffffffffffffffffffff169060200190929190505050610621565b60405180821515815260200191505060405180910390f35b610177610641565b005b61018161085b565b005b34801561018f57600080fd5b506101d2600480360360208110156101a657600080fd5b81019080803573ffffffffffffffffffffffffffffffffffffffff16906020019092919050505061085d565b6040518082815260200191505060405180910390f35b60016020528060005260406000206000915090505481565b600360003373ffffffffffffffffffffffffffffffffffffffff1673ffffffffffffffffffffffffffffffffffffffff16815260200190815260200160002060009054906101000a900460ff166102bf576040517f08c379a000000000000000000000000000000000000000000000000000000000815260040180806020018281038252601b8152602001807f4572726f722c206e6f2070726576696f7573206465706f73697473000000000081525060200191505060405180910390fd5b6000600260003373ffffffffffffffffffffffffffffffffffffffff1673ffffffffffffffffffffffffffffffffffffffff16815260200190815260200160002054420390506000662386f26fc10000600160003373ffffffffffffffffffffffffffffffffffffffff1673ffffffffffffffffffffffffffffffffffffffff168152602001908152602001600020548161035657fe5b046301e33731029050600082820290503373ffffffffffffffffffffffffffffffffffffffff166108fc600160003373ffffffffffffffffffffffffffffffffffffffff1673ffffffffffffffffffffffffffffffffffffffff168152602001908152602001600020549081150290604051600060405180830381858888f193505050501580156103eb573d6000803e3d6000fd5b5060008054906101000a900473ffffffffffffffffffffffffffffffffffffffff1673ffffffffffffffffffffffffffffffffffffffff166340c10f1933836040518363ffffffff1660e01b8152600401808373ffffffffffffffffffffffffffffffffffffffff16815260200182815260200192505050600060405180830381600087803b15801561047d57600080fd5b505af1158015610491573d6000803e3d6000fd5b505050506000600160003373ffffffffffffffffffffffffffffffffffffffff1673ffffffffffffffffffffffffffffffffffffffff168152602001908152602001600020819055506000600260003373ffffffffffffffffffffffffffffffffffffffff1673ffffffffffffffffffffffffffffffffffffffff168152602001908152602001600020819055506000600360003373ffffffffffffffffffffffffffffffffffffffff1673ffffffffffffffffffffffffffffffffffffffff16815260200190815260200160002060006101000a81548160ff0219169083151502179055506000600160003373ffffffffffffffffffffffffffffffffffffffff1673ffffffffffffffffffffffffffffffffffffffff1681526020019081526020016000205490503373ffffffffffffffffffffffffffffffffffffffff167f02f25270a4d87bea75db541cdfe559334a275b4a233520ed6c0a2429667cca9482868560405180848152602001838152602001828152602001935050505060405180910390a250505050565b565b60036020528060005260406000206000915054906101000a900460ff1681565b662386f26fc100003410156106a1576040517f08c379a00000000000000000000000000000000000000000000000000000000081526004018080602001828103825260278152602001806108766027913960400191505060405180910390fd5b34600160003373ffffffffffffffffffffffffffffffffffffffff1673ffffffffffffffffffffffffffffffffffffffff1681526020019081526020016000205401600160003373ffffffffffffffffffffffffffffffffffffffff1673ffffffffffffffffffffffffffffffffffffffff1681526020019081526020016000208190555042600260003373ffffffffffffffffffffffffffffffffffffffff1673ffffffffffffffffffffffffffffffffffffffff1681526020019081526020016000205401600260003373ffffffffffffffffffffffffffffffffffffffff1673ffffffffffffffffffffffffffffffffffffffff168152602001908152602001600020819055506001600360003373ffffffffffffffffffffffffffffffffffffffff1673ffffffffffffffffffffffffffffffffffffffff16815260200190815260200160002060006101000a81548160ff0219169083151502179055503373ffffffffffffffffffffffffffffffffffffffff167f90890809c654f11d6e72a28fa60149770a0d11ec6c92319d6ceb2bb0a4ea1a153442604051808381526020018281526020019250505060405180910390a2565b565b6002602052806000526040600020600091509050548156fe4465706f7369742073686f756c642062652067726561746564207468616e20302e303120455448a2646970667358221220f11dc4d0e073433834ebf758860b5997d406dd4b23084e7af0a9890d146a699764736f6c63430007060033",
  "immutableReferences": {},
  "source": "// SPDX-License-Identifier: MIT\r\npragma solidity >=0.6.0 <0.8.0;\r\n\r\nimport \"./Token.sol\";\r\n\r\ncontract dBank {\r\n\r\n  Token private _token;\r\n\r\n  mapping(address => uint) public etherBalanceOf;\r\n  mapping(address => uint) public depositStart;\r\n  mapping(address => bool) public isDeposited;\r\n\r\n  event Deposit(address indexed user, uint etherAmount, uint timeStart);\r\n  event Withdraw(address indexed user, uint etherAmount, uint timeStart, uint interest);\r\n\r\n  //pass as constructor argument deployed Token contract\r\n  constructor(Token token) public {\r\n    _token = token;\r\n  }\r\n\r\n  function deposit() payable public {\r\n    //check if msg.sender didn't already deposited funds\r\n    // require(!isDeposited[msg.sender], 'Deposit is already active');\r\n\r\n    //check if msg.value is >= than 0.01 ETH\r\n    require(msg.value >= 1e16, 'Deposit should be greated than 0.01 ETH');\r\n\r\n    //increase msg.sender ether deposit balance\r\n    etherBalanceOf[msg.sender] = etherBalanceOf[msg.sender] + msg.value;\r\n\r\n    //start msg.sender hodling time\r\n    depositStart[msg.sender] = depositStart[msg.sender] + block.timestamp;\r\n\r\n    //set msg.sender deposit status to true\r\n    isDeposited[msg.sender] = true;\r\n\r\n    //emit Deposit event\r\n    emit Deposit(msg.sender, msg.value, block.timestamp);\r\n  }\r\n\r\n  function withdraw() public {\r\n    //check if msg.sender deposit status is true\r\n    require(isDeposited[msg.sender], 'Error, no previous deposits');\r\n\r\n    //check user's hodl time\r\n    uint depositDuration = block.timestamp - depositStart[msg.sender];\r\n\r\n    //calc interest per second\r\n    uint interestPerSecond = 31668017 * (etherBalanceOf[msg.sender] / 1e16);\r\n\r\n    //calc accrued interest\r\n    uint interest = interestPerSecond * depositDuration;\r\n\r\n    //send eth to user\r\n    msg.sender.transfer(etherBalanceOf[msg.sender]);\r\n\r\n    //send interest in tokens to user\r\n    _token.mint(msg.sender, interest);\r\n\r\n    //reset depositer data\r\n    etherBalanceOf[msg.sender] = 0;\r\n    depositStart[msg.sender] = 0;\r\n    isDeposited[msg.sender] = false;\r\n\r\n    //emit event\r\n    uint userBalance = etherBalanceOf[msg.sender];\r\n    emit Withdraw(msg.sender, userBalance, depositDuration, interest);\r\n  }\r\n\r\n  function borrow() payable public {\r\n    //check if collateral is >= than 0.01 ETH\r\n    //check if user doesn't have active loan\r\n\r\n    //add msg.value to ether collateral\r\n\r\n    //calc tokens amount to mint, 50% of msg.value\r\n\r\n    //mint&send tokens to user\r\n\r\n    //activate borrower's loan status\r\n\r\n    //emit event\r\n  }\r\n\r\n  function payOff() public {\r\n    //check if loan is active\r\n    //transfer tokens from user back to the contract\r\n\r\n    //calc fee\r\n\r\n    //send user's collateral minus fee\r\n\r\n    //reset borrower's data\r\n\r\n    //emit event\r\n  }\r\n}",
  "sourcePath": "C:/Code/dapps/dbank/src/contracts/dBank.sol",
  "compiler": {
    "name": "solc",
    "version": "0.7.6+commit.7338295f.Emscripten.clang"
  },
  "schemaVersion": "3.2.3",
  "updatedAt": "2021-06-23T21:41:18.005Z",
  "devdoc": {
    "kind": "dev",
    "methods": {},
    "version": 1
  },
  "userdoc": {
    "kind": "user",
    "methods": {},
    "version": 1
  }
}